:0300000002096191
:0C096100787FE4F6D8FD75810A020912C7
:1008F4005A65686E207370696E73746572000708B8
:0E090400092F0405062A0102032D43003D2B96
:0808D300C2B5D2B67F027E001F
:1008DB00D3EF9400EE9400400F7DFADDFE7DF7DD43
:0808EB00FEEF1F70EB1E80E818
:0108F30022E2
:09098100A2A582A482A682A7228D
:10080000C2A3C2A2C2A1C2A0D2A7D2A6D2A5D2A47C
:1008100012098140FBC2A0D2A3D2A2D2A1120981A7
:100820004004E4FB8031C2A1D2A3D2A2D2A012091B
:100830008140047B018020C2A2D2A3D2A1D2A01207
:10084000098140047B02800FC2A3D2A2D2A1D2A010
:1008500012098140027B0320A404E4FC801020A53F
:10086000047C01800920A6047C0280027C037F6452
:100870007E001208DB12098150FBEBFF3395E0FE8E
:10088000EF7802C333CE33CED8F92402F58274094F
:100890003EF583ECFF3395E0FEE5822FF582E5839C
:0608A0003EF583E493FF26
:0108A600222F
:0A096D008F80C2B41208D3C2B62274
:0A0977008F80D2B41208D3C2B6225A
:10092F007F0212096D7F3812096D7F0E12096D7FDC
:09093F000612096D7F0102096D29
:1008A7008B088A09890AAB08AA09A90A12094860AC
:1008B7001A050AE50A7002050914F9120948FF1218
:0C08C70009777F0A7E001208DB80DB222C
:1009120012092F7BFF7A0879F41208A7120800AC9B
:0D092200077F0112096DAF0412097780EF05
:10094800BB010689828A83E0225002E722BBFE02AD
:09095800E32289828A83E49322E0
:00000001FF
